S00C00004C6162352E73726563D4
S11300000C942E000C94C6050C9432060C949E0697
S11300100C940A070C9476070C944B000C944D0E28
S11300200C944B000C94FB0D0C94E2070C944E08BA
S11300300C94BA080C9426090C9492090C94FE09A9
S11300400C946A0A0C94D60A0C94420B0C94AE0BD2
S11300500C941A0C0C94860C0C94F20C11241FBEF4
S1130060CFEFD4E0DEBFCDBF11E0A0E0B1E0ECEB18
S1130070F3E202C005900D92A035B107D9F724E050
S1130080A0E5B1E001C01D92A33AB207E1F70E94D6
S1130090D8030C94DC110C940000FC0111A210A2F2
S11300A00895CF92DF92EF92FF920F931F93FC017A
S11300B0C68CD78CF1E0CF1AD108FC01D78EC68E3E
S11300C08C01065F1F4F0F2EF1EBEF2EF2E0FF2E97
S11300D0F02D20E030E0A90160E070E0CB010E9447
S11300E0020F1F910F91FF90EF90DF90CF90089532
S11300F0CF92DF92EF92FF920F931F93CF93DF93F0
S1130100EC01FB013B96EE0FFF1FE80FF91F008186
S11301101181C12CD12C0F2EFAEFEF2EF4E0FF2E1B
S1130120F02D20E030E0A90160E070E0CB010E94F6
S1130130020F0F2EFDE4EF2EF0E0FF2EF02D8E01C6
S113014020E030E0A90162E17AE780E090E00E94DB
S1130150020FDF91CF911F910F91FF90EF90DF90ED
S1130160CF900895CF92DF92EF92FF920F931F9357
S1130170672BD9F4FC01C28CD38CFFEFCF1ADF0AB2
S1130180FC01D38EC28E8C010C5F1F4F0F2EF1EB3E
S1130190EF2EF2E0FF2EF02D20E030E0A90160E028
S11301A070E0CB010E94020F1AC0FC01C48CD58CF4
S11301B0FFEFCF1ADF0AFC01D58EC48E8C01005FDD
S11301C01F4F0F2EF1EBEF2EF2E0FF2EF02D20E06B
S11301D030E0A90160E070E0CB010E94020F1F91A2
S11301E00F91FF90EF90DF90CF900895CF92DF9220
S11301F0EF92FF920F931F93672BD9F4FC01C28CEB
S1130200D38CF1E0CF1AD108FC01D38EC28E8C01BD
S11302100C5F1F4F0F2EF1EBEF2EF2E0FF2EF02DAF
S113022020E030E0A90160E070E0CB010E94020F01
S11302301AC0FC01C48CD58CF1E0CF1AD108FC01A2
S1130240D58EC48E8C01005F1F4F0F2EF1EBEF2E65
S1130250F2E0FF2EF02D20E030E0A90160E070E034
S1130260CB010E94020F1F910F91FF90EF90DF903E
S1130270CF900895AF92BF92CF92DF92EF92FF9208
S11302800F931F93CF93DF93EC015B01CE8CDF8C34
S11302908FEFC81AD80ADF8ECE8E8E01065F1F4FED
S11302A00F2EF1EBEF2EF2E0FF2EF02D20E030E0E8
S11302B0A90160E070E0CB010E94020FC12CD12C97
S11302C00F2EF1E5EF2EF0E0FF2EF02D8E0120E051
S11302D030E0A9016AE572E682E090E00E94020F34
S11302E0B501CE010E94F600DF91CF911F910F91CD
S11302F0FF90EF90DF90CF90BF90AF900895AF92B2
S1130300BF92CF92DF92EF92FF920F931F93CF93FE
S1130310DF93EC015B0181E090E099A388A30E894F
S11303201F89C12CD12C0F2EF2EFEF2EF4E0FF2EFB
S1130330F02D20E030E0A90160E070E0CB010E94E4
S1130340020F22E13AE7D5010E9463110F2EF8E76C
S1130350EF2EF0E0FF2EF02D8E0120E030E0A90119
S11303600E94020FDF91CF911F910F91FF90EF90A8
S1130370DF90CF90BF90AF900895AF92BF92CF928D
S1130380DF92EF92FF920F931F93CF93DF93EC01D1
S11303905B0181E090E099A388A3088D198DC12C9D
S11303A0D12C0F2EF2EFEF2EF4E0FF2EF02D20E0F3
S11303B030E0A90160E070E0CB010E94020F22E16D
S11303C03AE7D5010E946311CC24C394D12C0F2E9B
S11303D0F8E7EF2EF0E0FF2EF02D8E0120E030E064
S11303E0A9010E94020FDF91CF911F910F91FF90FD
S11303F0EF90DF90CF90BF90AF900895CF92DF92AF
S1130400EF92FF920F931F93CF93DF93EC018E8DA6
S11304109F8D892B09F04AC088A199A1892B09F0E5
S113042045C08AA19BA1823091056CF01BA21AA23F
S11304308CA19DA101969DA38CA36C8D7D8DCE0175
S11304400E94BD0133C02CA13DA1223031055CF0D6
S113045001969BA38AA31DA21CA26A8D7B8DCE014B
S11304600E947F0123C04A8D5B8D6C8D7D8D461764
S1130470570784F01416150654F401969BA38AA317
S11304801DA21CA2BA01CE010E947F010FC06417F5
S1130490750764F0161617064CF41BA21AA22F5FF8
S11304A03F4F3DA32CA3CE010E94BD01C12CD12CF2
S11304B00F2EFEEFEF2EF1E0FF2EF02D8E0120E047
S11304C030E0A90169E07DE380E090E00E94020F42
S11304D0DF91CF911F910F91FF90EF90DF90CF901C
S11304E00895CF92DF92EF92FF920F931F93CF93D1
S11304F0DF93EC01CA8CDB8C8C010C5F1F4F0F2E39
S1130500F1EBEF2EF2E0FF2EF02D20E030E0A90118
S113051060E070E0CB010E94020FCE8CDF8C0A5F9A
S11305201F4F20E030E0A90160E070E0CB010E94A1
S1130530020FCC8CDD8C0A5F1F4F20E030E0A90154
S113054060E070E0CB010E94020FCE010E94FE0128
S1130550DF91CF911F910F91FF90EF90DF90CF909B
S11305600895FC0144815581072E000C880B990BDA
S11305700E949E030895CF92DF92EF92FF920F9311
S11305801F93DC01E0ECF0E090819923ECF72091DB
S1130590C60030E021303105A9F414960D911C9168
S11305A01597C12CD12C0F2EF2EBEF2EF0E0FF2E7D
S11305B0F02D20E030E0A90160E070E0CB010E9462
S11305C0020F49C022303105A9F414960D911C91F3
S11305D01597C12CD12C0F2EFAE3EF2EF1E0FF2E4C
S11305E0F02D20E030E0A90160E070E0CB010E9432
S11305F0020F31C024303105B1F414960D911C91D1
S11306001597CC24C394D12C0F2EF2EBEF2EF0E0EF
S1130610FF2EF02D20E030E0A90160E070E0CB0176
S11306200E94020F18C028303105A9F414960D91C8
S11306301C911597CC24C394D12C0F2EFAE3EF2EE2
S1130640F1E0FF2EF02D20E030E0A90160E070E041
S1130650CB010E94020F1F910F91FF90EF90DF904A
S1130660CF9008956630710508F05AC09FE9980F3D
S11306709A3148F4A82FB0E0AA0FBB1FAA5BBF4F62
S11306802D913C9119C090ED980F9A3048F4A82F01
S1130690B0E0AA0FBB1FA452BF4F2D913C910CC0D8
S11306A09FEB980F9A31E0F5A82FB0E0AA0FBB1F7B
S11306B0AA57BF4F2D913C916430710534F46230D8
S11306C0710554F477232CF40CC0663071053CF0AA
S11306D008C0ECEEF0E005C0EDEEF0E002C0EEEE96
S11306E0F0E0DB01A170BB2760FF02C06FE001C036
S11306F060EFAF014C5E5F4F822F8F703295229571
S11307002F7023273F702327109711F08295807F45
S113071090819623892B808335964E175F0761F766
S1130720089587EB8093E50087E08093E6008FE0EF
S11307308093E70080EC8093E40008958F929F9269
S1130740AF92BF92CF92DF92EF92FF92CF93DF935B
S11307504B015C01EA0124E630E040E050E00E94F5
S113076044110F2EFAE0CF2ED12CE12CF12CF02DD8
S1130770A70196010E944411BE0180E3820F0E94EA
S113078032032196C501B401A70196010E944411C8
S1130790862FBE01805D0E943203DF91CF91FF90CE
S11307A0EF90DF90CF90BF90AF909F908F9008957F
S11307B0EF92FF920F931F93CF93DF93CDB7DEB7E2
S11307C0C454D1090FB6F894DEBF0FBECDBF1A8250
S11307D019821C821B821E821D8218861F828E0132
S11307E00F5F1F4F1A8709871C861B861E861D866E
S11307F0188A1F861A8A198A1C8B0B8B1E8A1D8ADB
S113080081E090E0988F8F8B1A8E198E1C8E1B8E30
S11308101E8E1D8E18A21F8E84E090E09AA389A3D9
S11308201CA21BA21EA21DA282E090E098A78FA387
S11308301AA619A61CA61BA61EA61DA6CE010596C1
S113084098AB8FA70A969AAB89AB1CAA1BAA1EAABF
S11308501DAA18AE1FAA1AAE19AE1CAE1BAE1EAE50
S11308601DAE21961FAE1EAE219723961FAE1EAE5F
S113087023977E0189E1E80EF11C2596FFAEEEAECA
S11308802597E1E6F0E080E8808310820E949103DE
S1130890C8010E94760448E06BEB72E0CE01CF966B
S11308A00E940E114AE06BEB72E0CE01CF960E94DB
S11308B00E1140E050E061E772E0C7010E94281188
S11308C0CC5BDF4F0FB6F894DEBF0FBECDBFDF9118
S11308D0CF911F910F91FF90EF900895E0ECF0E01D
S11308E0808185FFFDCF6093C60008951092C500F6
S11308F083E38093C400E1ECF0E080818869808325
S11309000895CF92DF92EF92FF920F931F93FC0111
S113091080859185892B81F5868197810097B9F02F
S1130920019709F058C004811581CC24C394D12CBB
S11309300F2EFEE6EF2EF4E0FF2EF02D20E030E047
S1130940A90160E070E0CB010E94020F44C0048161
S113095015816894CC24C1F8D12C0F2EFEE6EF2E1D
S1130960F4E0FF2EF02D20E030E0A90160E070E01B
S1130970CB010E94020F2FC0868197810097B9F0A6
S1130980019749F5048115816894CC24C2F8D12CCF
S11309900F2EFEE6EF2EF4E0FF2EF02D20E030E0E7
S11309A0A90160E070E0CB010E94020F14C0048131
S11309B015816894CC24C3F8D12C0F2EFEE6EF2EBB
S11309C0F4E0FF2EF02D20E030E0A90160E070E0BB
S11309D0CB010E94020F1F910F91FF90EF90DF90C7
S11309E0CF90089521E030E0FC01378326830E94F4
S11309F081040895FC01178216820E9481040895DF
S1130A00CF93DF9300D000D0CDB7DEB783E492E07C
S1130A1023E233E0FC017097918380834096821730
S1130A209307C1F71092140310921303EEE7F1E059
S1130A308BE991E09183808388EB91E0968F858F99
S1130A40A5EDB1E0B3AFA2AF1D921C92FA83E98386
S1130A50EFE7F3E0FC83EB8389819A8106960E9499
S1130A609B118B819C81E981FA81978B868B918F75
S1130A70808F80EA90E1948F838F158214827D9613
S1130A80FA83E983EB81FC81E05AFF4FFC83EB831B
S1130A9089819A81825F9140F9F6E6E1F2E0118260
S1130AA010821582148213821282E1E6F0E080E85B
S1130AB080831082109285001092840084E08093D9
S1130AC0810081E080936F000F900F900F900F9042
S1130AD0DF91CF910895CF93DF9300D0CDB7DEB7E8
S1130AE09A838983809100019091010106960E9466
S1130AF09B11892B59F489819A81909301018093E8
S1130B00000161E070E006960E94BB110F900F9007
S1130B10DF91CF9108950F931F93CF93DF93E091CB
S1130B205801F0915901309761F18091040190913D
S1130B300501009731F1C0910201D0910301AA810E
S1130B40BB81109779F0468157816085718516962F
S1130B500D911D912D913C911997401B510B620BE6
S1130B60730B7AF4FC0120813181309305012093C9
S1130B700401D183C08390930301809302010E94F6
S1130B806B05DF91CF911F910F9108951F920F92E2
S1130B900FB60F9211242F933F934F935F936F934C
S1130BA07F938F939F93AF93BF93EF93FF93209182
S1130BB05001309151014091840050918500C90148
S1130BC0032E000CAA0BBB0BDC019927882760E0DD
S1130BD070E0842B952BA62BB72B80935201909316
S1130BE05301A0935401B0935501B09B1BC0409195
S1130BF0840050918500C9010196092E000CAA0BAE
S1130C00BB0BDC019927882760E070E0842B952BCF
S1130C10A62BB72B8093520190935301A0935401B8
S1130C20B0935501E091F201F091F301309739F05E
S1130C3060E070E080915A0190915B0109950E94F7
S1130C408B05FF91EF91BF91AF919F918F917F9110
S1130C506F915F914F913F912F910F900FBE0F9025
S1130C601F9018951F920F920FB60F9211242F9375
S1130C703F934F935F936F937F938F939F93AF9320
S1130C80BF93EF93FF932091500130915101409114
S1130C90840050918500C901032E000CAA0BBB0BE4
S1130CA0DC019927882760E070E0842B952BA62B24
S1130CB0B72B8093520190935301A0935401B093A6
S1130CC05501B09B1BC04091840050918500C9011F
S1130CD00196092E000CAA0BBB0BDC01992788276F
S1130CE060E070E0842B952BA62BB72B80935201E8
S1130CF090935301A0935401B0935501E091F401F2
S1130D00F091F501309739F061E070E080915C0179
S1130D1090915D0109950E948B05FF91EF91BF9120
S1130D20AF919F918F917F916F915F914F913F917F
S1130D302F910F900FBE0F901F9018951F920F9236
S1130D400FB60F9211242F933F934F935F936F939A
S1130D507F938F939F93AF93BF93EF93FF932091D0
S1130D605001309151014091840050918500C90196
S1130D70032E000CAA0BBB0BDC019927882760E02B
S1130D8070E0842B952BA62BB72B80935201909364
S1130D905301A0935401B0935501B09B1BC04091E3
S1130DA0840050918500C9010196092E000CAA0BFC
S1130DB0BB0BDC019927882760E070E0842B952B1E
S1130DC0A62BB72B8093520190935301A093540107
S1130DD0B0935501E091F601F091F701309739F0A5
S1130DE062E070E080915E0190915F0109950E943C
S1130DF08B05FF91EF91BF91AF919F918F917F915F
S1130E006F915F914F913F912F910F900FBE0F9073
S1130E101F9018951F920F920FB60F9211242F93C3
S1130E203F934F935F936F937F938F939F93AF936E
S1130E30BF93EF93FF932091500130915101409162
S1130E40840050918500C901032E000CAA0BBB0B32
S1130E50DC019927882760E070E0842B952BA62B72
S1130E60B72B8093520190935301A0935401B093F4
S1130E705501B09B1BC04091840050918500C9016D
S1130E800196092E000CAA0BBB0BDC0199278827BD
S1130E9060E070E0842B952BA62BB72B8093520136
S1130EA090935301A0935401B0935501E091F8013C
S1130EB0F091F901309739F063E070E080916001BE
S1130EC09091610109950E948B05FF91EF91BF916B
S1130ED0AF919F918F917F916F915F914F913F91CE
S1130EE02F910F900FBE0F901F9018951F920F9285
S1130EF00FB60F9211242F933F934F935F936F93E9
S1130F007F938F939F93AF93BF93EF93FF9320911E
S1130F105001309151014091840050918500C901E4
S1130F20032E000CAA0BBB0BDC019927882760E079
S1130F3070E0842B952BA62BB72B809352019093B2
S1130F405301A0935401B0935501B09B1BC0409131
S1130F50840050918500C9010196092E000CAA0B4A
S1130F60BB0BDC019927882760E070E0842B952B6C
S1130F70A62BB72B8093520190935301A093540155
S1130F80B0935501E091FA01F091FB01309739F0EB
S1130F9064E070E0809162019091630109950E9480
S1130FA08B05FF91EF91BF91AF919F918F917F91AD
S1130FB06F915F914F913F912F910F900FBE0F90C2
S1130FC01F9018951F920F920FB60F9211242F9312
S1130FD03F934F935F936F937F938F939F93AF93BD
S1130FE0BF93EF93FF9320915001309151014091B1
S1130FF0840050918500C901032E000CAA0BBB0B81
S1131000DC019927882760E070E0842B952BA62BC0
S1131010B72B8093520190935301A0935401B09342
S11310205501B09B1BC04091840050918500C901BB
S11310300196092E000CAA0BBB0BDC01992788270B
S113104060E070E0842B952BA62BB72B8093520184
S113105090935301A0935401B0935501E091FC0186
S1131060F091FD01309739F065E070E08091640102
S11310709091650109950E948B05FF91EF91BF91B5
S1131080AF919F918F917F916F915F914F913F911C
S11310902F910F900FBE0F901F9018951F920F92D3
S11310A00FB60F9211242F933F934F935F936F9337
S11310B07F938F939F93AF93BF93EF93FF9320916D
S11310C05001309151014091840050918500C90133
S11310D0032E000CAA0BBB0BDC019927882760E0C8
S11310E070E0842B952BA62BB72B80935201909301
S11310F05301A0935401B0935501B09B1BC0409180
S1131100840050918500C9010196092E000CAA0B98
S1131110BB0BDC019927882760E070E0842B952BBA
S1131120A62BB72B8093520190935301A0935401A3
S1131130B0935501E091FE01F091FF01309739F031
S113114066E070E0809166019091670109950E94C4
S11311508B05FF91EF91BF91AF919F918F917F91FB
S11311606F915F914F913F912F910F900FBE0F9010
S11311701F9018951F920F920FB60F9211242F9360
S11311803F934F935F936F937F938F939F93AF930B
S1131190BF93EF93FF9320915001309151014091FF
S11311A0840050918500C901032E000CAA0BBB0BCF
S11311B0DC019927882760E070E0842B952BA62B0F
S11311C0B72B8093520190935301A0935401B09391
S11311D05501B09B1BC04091840050918500C9010A
S11311E00196092E000CAA0BBB0BDC01992788275A
S11311F060E070E0842B952BA62BB72B80935201D3
S113120090935301A0935401B0935501E0910002CF
S1131210F0910102309739F067E070E08091680145
S11312209091690109950E948B05FF91EF91BF91FF
S1131230AF919F918F917F916F915F914F913F916A
S11312402F910F900FBE0F901F9018951F920F9221
S11312500FB60F9211242F933F934F935F936F9385
S11312607F938F939F93AF93BF93EF93FF932091BB
S11312705001309151014091840050918500C90181
S1131280032E000CAA0BBB0BDC019927882760E016
S113129070E0842B952BA62BB72B8093520190934F
S11312A05301A0935401B0935501B09B1BC04091CE
S11312B0840050918500C9010196092E000CAA0BE7
S11312C0BB0BDC019927882760E070E0842B952B09
S11312D0A62BB72B8093520190935301A0935401F2
S11312E0B0935501E0910202F0910302309739F076
S11312F068E070E080916A0190916B0109950E9409
S11313008B05FF91EF91BF91AF919F918F917F9149
S11313106F915F914F913F912F910F900FBE0F905E
S11313201F9018951F920F920FB60F9211242F93AE
S11313303F934F935F936F937F938F939F93AF9359
S1131340BF93EF93FF93209150013091510140914D
S1131350840050918500C901032E000CAA0BBB0B1D
S1131360DC019927882760E070E0842B952BA62B5D
S1131370B72B8093520190935301A0935401B093DF
S11313805501B09B1BC04091840050918500C90158
S11313900196092E000CAA0BBB0BDC0199278827A8
S11313A060E070E0842B952BA62BB72B8093520121
S11313B090935301A0935401B0935501E09104021A
S11313C0F0910502309739F069E070E080916C018A
S11313D090916D0109950E948B05FF91EF91BF914A
S11313E0AF919F918F917F916F915F914F913F91B9
S11313F02F910F900FBE0F901F9018951F920F9270
S11314000FB60F9211242F933F934F935F936F93D3
S11314107F938F939F93AF93BF93EF93FF93209109
S11314205001309151014091840050918500C901CF
S1131430032E000CAA0BBB0BDC019927882760E064
S113144070E0842B952BA62BB72B8093520190939D
S11314505301A0935401B0935501B09B1BC040911C
S1131460840050918500C9010196092E000CAA0B35
S1131470BB0BDC019927882760E070E0842B952B57
S1131480A62BB72B8093520190935301A093540140
S1131490B0935501E0910602F0910702309739F0BC
S11314A06AE070E080916E0190916F0109950E944D
S11314B08B05FF91EF91BF91AF919F918F917F9198
S11314C06F915F914F913F912F910F900FBE0F90AD
S11314D01F9018951F920F920FB60F9211242F93FD
S11314E03F934F935F936F937F938F939F93AF93A8
S11314F0BF93EF93FF93209150013091510140919C
S1131500840050918500C901032E000CAA0BBB0B6B
S1131510DC019927882760E070E0842B952BA62BAB
S1131520B72B8093520190935301A0935401B0932D
S11315305501B09B1BC04091840050918500C901A6
S11315400196092E000CAA0BBB0BDC0199278827F6
S113155060E070E0842B952BA62BB72B809352016F
S113156090935301A0935401B0935501E091080264
S1131570F0910902309739F06BE070E080917001CE
S11315809091710109950E948B05FF91EF91BF9194
S1131590AF919F918F917F916F915F914F913F9107
S11315A02F910F900FBE0F901F9018951F920F92BE
S11315B00FB60F9211242F933F934F935F936F9322
S11315C07F938F939F93AF93BF93EF93FF93209158
S11315D05001309151014091840050918500C9011E
S11315E0032E000CAA0BBB0BDC019927882760E0B3
S11315F070E0842B952BA62BB72B809352019093EC
S11316005301A0935401B0935501B09B1BC040916A
S1131610840050918500C9010196092E000CAA0B83
S1131620BB0BDC019927882760E070E0842B952BA5
S1131630A62BB72B8093520190935301A09354018E
S1131640B0935501E0910A02F0910B02309739F002
S11316506CE070E0809172019091730109950E9491
S11316608B05FF91EF91BF91AF919F918F917F91E6
S11316706F915F914F913F912F910F900FBE0F90FB
S11316801F9018951F920F920FB60F9211242F934B
S11316903F934F935F936F937F938F939F93AF93F6
S11316A0BF93EF93FF9320915001309151014091EA
S11316B0840050918500C901032E000CAA0BBB0BBA
S11316C0DC019927882760E070E0842B952BA62BFA
S11316D0B72B8093520190935301A0935401B0937C
S11316E05501B09B1BC04091840050918500C901F5
S11316F00196092E000CAA0BBB0BDC019927882745
S113170060E070E0842B952BA62BB72B80935201BD
S113171090935301A0935401B0935501E0910C02AE
S1131720F0910D02309739F06DE070E08091740112
S11317309091750109950E948B05FF91EF91BF91DE
S1131740AF919F918F917F916F915F914F913F9155
S11317502F910F900FBE0F901F9018951F920F920C
S11317600FB60F9211242F933F934F935F936F9370
S11317707F938F939F93AF93BF93EF93FF932091A6
S11317805001309151014091840050918500C9016C
S1131790032E000CAA0BBB0BDC019927882760E001
S11317A070E0842B952BA62BB72B8093520190933A
S11317B05301A0935401B0935501B09B1BC04091B9
S11317C0840050918500C9010196092E000CAA0BD2
S11317D0BB0BDC019927882760E070E0842B952BF4
S11317E0A62BB72B8093520190935301A0935401DD
S11317F0B0935501E0910E02F0910F02309739F049
S11318006EE070E0809176019091770109950E94D5
S11318108B05FF91EF91BF91AF919F918F917F9134
S11318206F915F914F913F912F910F900FBE0F9049
S11318301F9018951F920F920FB60F9211242F9399
S11318403F934F935F936F937F938F939F93AF9344
S1131850BF93EF93FF932091500130915101409138
S1131860840050918500C901032E000CAA0BBB0B08
S1131870DC019927882760E070E0842B952BA62B48
S1131880B72B8093520190935301A0935401B093CA
S11318905501B09B1BC04091840050918500C90143
S11318A00196092E000CAA0BBB0BDC019927882793
S11318B060E070E0842B952BA62BB72B809352010C
S11318C090935301A0935401B0935501E0911002F9
S11318D0F0911102309739F06FE070E08091780157
S11318E09091790109950E948B05FF91EF91BF9129
S11318F0AF919F918F917F916F915F914F913F91A4
S11319002F910F900FBE0F901F9018951F920F925A
S11319100FB60F9211242F933F934F935F936F93BE
S11319207F938F939F93AF93BF93EF93FF932091F4
S11319305001309151014091840050918500C901BA
S1131940032E000CAA0BBB0BDC019927882760E04F
S113195070E0842B952BA62BB72B80935201909388
S11319605301A0935401B0935501B09B1BC0409107
S1131970840050918500C9010196092E000CAA0B20
S1131980BB0BDC019927882760E070E0842B952B42
S1131990A62BB72B8093520190935301A09354012B
S11319A0B0935501E0911202F0911302309739F08F
S11319B060E170E080917A0190917B0109950E9429
S11319C08B05FF91EF91BF91AF919F918F917F9183
S11319D06F915F914F913F912F910F900FBE0F9098
S11319E01F9018951F920F920FB60F9211242F93E8
S11319F03F934F935F936F937F938F939F93AF9393
S1131A00BF93EF93FF932091500130915101409186
S1131A10840050918500C901032E000CAA0BBB0B56
S1131A20DC019927882760E070E0842B952BA62B96
S1131A30B72B8093520190935301A0935401B09318
S1131A405501B09B1BC04091840050918500C90191
S1131A500196092E000CAA0BBB0BDC0199278827E1
S1131A6060E070E0842B952BA62BB72B809352015A
S1131A7090935301A0935401B0935501E091140243
S1131A80F0911502309739F061E170E080917C01AA
S1131A9090917D0109950E948B05FF91EF91BF9173
S1131AA0AF919F918F917F916F915F914F913F91F2
S1131AB02F910F900FBE0F901F901895EF92FF92E9
S1131AC00F931F93CF93DF937B01EB01A881B9811F
S1131AD0109761F1FC0106811781208531851696E6
S1131AE04D915D916D917C91199704171507260707
S1131AF0370714F41BC0DF01ED91FC911197309767
S1131B0049F04681578160857185041715072607BA
S1131B1037078CF7EC01F983E883109721F4F70178
S1131B209183808307C08D939C9304C0EC01B98397
S1131B30A883F5CFDF91CF911F910F91FF90EF9084
S1131B400895EF92FF920F931F93CF93DF937B013E
S1131B50EB01A881B981109761F1FC010281138125
S1131B602481358112964D915D916D917C911597EB
S1131B70041715072607370714F41BC0DF01ED917E
S1131B80FC911197309749F04281538164817581AA
S1131B9004171507260737078CF7EC01F983E88348
S1131BA0109721F4F7019183808307C08D939C9350
S1131BB004C0EC01B983A883F5CFDF91CF911F91C5
S1131BC00F91FF90EF900895DC01ED91FC91119736
S1131BD0309759F48FEF8093EC008093ED0080935D
S1131BE0EE0081E083BF8895FDCF208131812D9364
S1131BF03C93CF0108951F920F920FB60F921124B8
S1131C002F933F934F935F936F937F938F939F9300
S1131C10EF93FF938091500190915101019690931D
S1131C20510180935001E0915601F0915701309792
S1131C3001F1428153816481758186179707C9F444
S1131C40CA012091840030918500421B530B41301E
S1131C50510529F480918400909185000196909318
S1131C60890080938800EFE6F0E0808182608083C1
S1131C7005C0EFE6F0E080818D7F8083FF91EF91D6
S1131C809F918F917F916F915F914F913F912F9190
S1131C900F900FBE0F901F9018951F920F920FB6C2
S1131CA00F921124CF92DF92EF92FF922F933F93E2
S1131CB04F935F936F937F938F939F93AF93BF9350
S1131CC0EF93FF93C0905001D09051012091840074
S1131CD030918500B0990FC00D2C000CEE08FF0860
S1131CE0D601992788276901E12CF12CC82AD92A21
S1131CF0EA2AFB2A15C020918400309185008FEFD9
S1131D00C81AD80A0D2C000CEE08FF08D601992732
S1131D1088276901E12CF12CC82AD92AEA2AFB2A4E
S1131D20E0915601F0915701309709F442C0828145
S1131D309381A481B5818C199D09AE09BF09181638
S1131D4019061A061B06ECF186E591E00E94E40DE3
S1131D5068E571E00E945E0DE0915601F091570133
S1131D60309739F182819381A481B5818C199D09C1
S1131D70AE09BF09181619061A061B062CF721C04E
S1131D809C014091840050918500841B950B019720
S1131D9031F420918400309185002F5F3F4F3093C0
S1131DA0890020938800EFE6F0E0808182608083E0
S1131DB005C0EFE6F0E080818D7F80830E948B0573
S1131DC00CC082819381A481B5812091500130910E
S1131DD051012A173B0769F7D3CFFF91EF91BF91C8
S1131DE0AF919F918F917F916F915F914F913F91AF
S1131DF02F91FF90EF90DF90CF900F900FBE0F9038
S1131E001F9018953F924F925F926F927F928F929C
S1131E109F92AF92BF92CF92DF92EF92FF920F9375
S1131E201F93CF93DF932B013C0149015A018FB7D4
S1131E308078382EF89486E091E00E94E40DEC015D
S1131E401B870A87FD86EC86DF86CE86332061F009
S1131E50E0910001F09101010280F381E02D828183
S1131E609381A481B58108C080915201909153015E
S1131E70A0915401B0915501480E591E6A1E7B1E53
S1131E804A825B826C827D82181419041A041B0432
S1131E9044F00F2E88248A94982CA82CFFE7BF2E98
S1131EA0F02D840C951CA61CB71C8E829F82A886DC
S1131EB0B9868091500190915101409184005091D4
S1131EC08500B0990EC0092E000CAA0BBB0BDC01D7
S1131ED09927882760E070E0842B952BA62BB72BDD
S1131EE013C020918400309185000196092E000CC6
S1131EF0AA0BBB0BDC0199278827A90160E070E0DD
S1131F00842B952BA62BB72B481A590A6A0A7B0AED
S1131F101414150416041704ACF566E571E0CE013B
S1131F200E94A10DE0915601F0915701309721F1E3
S1131F3082819381A481B581209150013091510116
S1131F402A173B07C9F49C014091840050918500F5
S1131F50841B950B019731F4209184003091850006
S1131F602F5F3F4F3093890020938800EFE6F0E025
S1131F7080818260808341C0EFE6F0E080818D7FC4
S1131F8080833BC068E571E0CE010E945E0D332082
S1131F90B9F18091040190910501009781F1E091DC
S1131FA00201F091030120915801309159010281FD
S1131FB01381D90116964D915D916D917C9119977C
S1131FC0D80116960D911D912D913C911997401BA6
S1131FD0510B620B730B9AF4DC012D913C91119718
S1131FE03093050120930401ED93FC939093030136
S1131FF0809302010E946B0502C0332009F078949B
S1132000CE01DF91CF911F910F91FF90EF90DF9060
S1132010CF90BF90AF909F908F907F906F905F9084
S11320204F903F900895CF92DF92EF92FF920F93DB
S11320301F93CF93DF93EC017B016A011FB71078E4
S1132040F894A881B981109761F11496ED91FC91EF
S11320501597309741F0A081B1811496ED91FC91D0
S113206015973097C1F720910001309101012A178B
S11320703B0721F0112309F43DC007C0112309F4E3
S11320803CC078948FEF9FEF52C08A819B81009768
S1132090D1F1FC011582148236C0789480E090E07E
S11320A046C0809100019091010199838883112396
S11320B029F08A819B81019709F07894B601CE01B9
S11320C0F7010995F82E092F8FB7F8941982188211
S11320D08A819B818230910538F01B821A82FC012F
S11320E0158214820E946B05112351F078948F2D70
S11320F0902F1DC08FEF9FEF1AC08FEF9FEF17C077
S11321008F2D902F14C03B832A83F901D583C48378
S1132110CD010E946B05E0910001F09101018281E3
S11321209381892B09F4B9CFF983E883C2CFDF9176
S1132130CF911F910F91FF90EF90DF90CF90089572
S1132140009100011091010188E591E00E94E40DE5
S1132150EC01D80113969C938E93129778944E8534
S11321605F856C857D858A859B850E9413108FB75A
S1132170F894809106019091070199838883D09304
S11321800701C0930601E0910201F091030100816F
S11321901181E8012A813B81A0915801B091590134
S11321A01097C1F02115310559F216968D919D9124
S11321B00D90BC91A02DE9014E815F8168857985E0
S11321C0841B950BA60BB70B181619061A061B06CB
S11321D00CF0B6CF10930301009302018091040127
S11321E09091050191838083F0930501E0930401AC
S11321F0A0910201B09103011496ED91FC91159701
S1132200309741F0A081B1811496ED91FC9115971E
S11322103097C1F7CD010E946B0592CF4231B8F4DB
S11322202FB7F89450E0440F551FFA01E65AFE4FB9
S113223091838083FA01EE50FE4F7183608341E005
S113224050E0FC015383428322230CF478940895D4
S11322508C017B016A018FB7F8940E940005789481
S1132260E114F10441F020E030E0A90160E070E005
S1132270CB010E94020F8FB7F8940E948B057894CB
S113228081E083BF8895FDCF052E97FB1EF4009453
S11322900E945B1157FD07D00E946A1107FC03D00E
S11322A04EF40C945B1150954095309521953F4F19
S11322B04F4F5F4F089590958095709561957F4F2E
S11322C08F4F9F4F08950E948C11B7FF0895821B72
S11322D0930B0895A1E21A2EAA1BBB1BFD010DC08E
S11322E0AA1FBB1FEE1FFF1FA217B307E407F507C2
S11322F020F0A21BB30BE40BF50B661F771F881F9E
S1132300991F1A9469F760957095809590959B0133
S1132310AC01BD01CF010895A29FB001B39FC001DC
S1132320A39F700D811D1124911DB29F700D811DFD
S11323301124911D0895DC012D923D924D925D92E0
S11323406D927D928D929D92AD92BD92CD92DD92D1
S1132350ED92FD920D931D93CD93DD93FF91EF913B
S11323608DB78D938EB78D938FB78D93ED93FD932A
S1132370882799270994DC01CB0181309105811DBF
S11323802D903D904D905D906D907D908D909D90A1
S1132390AD90BD90CD90DD90ED90FD900D911D918F
S11323A0CD91DD91ED91FD910D90F894FEBF0FBE9E
S10F23B0EDBFED91FD910994F894FFCF6E
S11323BC160216027E013302510F913941149131E8
S11323CC41164106411D500F8130101548864014AA
S11323DC780570855115510E5195518E411B8120F4
S11323EC5015484450C528C02820095051151801CF
S11323FC111E1119500B411B411F0920511F510B68
S9030000FC
